{
  "contractName": "Todo",
  "abi": [
    {
      "inputs": [],
      "payable": false,
      "stateMutability": "nonpayable",
      "type": "constructor"
    },
    {
      "anonymous": false,
      "inputs": [
        {
          "indexed": false,
          "name": "",
          "type": "uint256"
        },
        {
          "indexed": false,
          "name": "",
          "type": "uint256"
        },
        {
          "indexed": false,
          "name": "",
          "type": "string"
        },
        {
          "indexed": false,
          "name": "",
          "type": "string"
        },
        {
          "indexed": false,
          "name": "",
          "type": "bool"
        }
      ],
      "name": "TaskEvent",
      "type": "event"
    },
    {
      "constant": false,
      "inputs": [
        {
          "name": "_content",
          "type": "string"
        },
        {
          "name": "_author",
          "type": "string"
        }
      ],
      "name": "createTask",
      "outputs": [],
      "payable": false,
      "stateMutability": "nonpayable",
      "type": "function"
    },
    {
      "constant": true,
      "inputs": [
        {
          "name": "id",
          "type": "uint256"
        }
      ],
      "name": "getTask",
      "outputs": [
        {
          "name": "",
          "type": "uint256"
        },
        {
          "name": "",
          "type": "uint256"
        },
        {
          "name": "",
          "type": "string"
        },
        {
          "name": "",
          "type": "string"
        },
        {
          "name": "",
          "type": "bool"
        }
      ],
      "payable": false,
      "stateMutability": "view",
      "type": "function"
    },
    {
      "constant": true,
      "inputs": [],
      "name": "getTaskId",
      "outputs": [
        {
          "name": "",
          "type": "uint256[]"
        }
      ],
      "payable": false,
      "stateMutability": "view",
      "type": "function"
    }
  ],
  "bytecode": "0x608060405234801561001057600080fd5b50600080819055506108ab806100276000396000f3fe608060405260043610610057576000357c0100000000000000000000000000000000000000000000000000000000900463ffffffff168063138596881461005c5780631d65e77e14610087578063292a4585146100c8575b600080fd5b34801561006857600080fd5b506100716100f1565b60405161007e91906106f2565b60405180910390f35b34801561009357600080fd5b506100ae60048036036100a9919081019061061a565b610149565b6040516100bf959493929190610714565b60405180910390f35b3480156100d457600080fd5b506100ef60048036036100ea91908101906105ae565b61032a565b005b6060600180548060200260200160405190810160405280929190818152602001828054801561013f57602002820191906000526020600020905b81548152602001906001019080831161012b575b5050505050905090565b60008060608060008560006002600083815260200190815260200160002060000154141561017657600080fd5b866002600089815260200190815260200160002060010154600260008a8152602001908152602001600020600201600260008b8152602001908152602001600020600301600260008c815260200190815260200160002060040160009054906101000a900460ff16828054600181600116156101000203166002900480601f0160208091040260200160405190810160405280929190818152602001828054600181600116156101000203166002900480156102735780601f1061024857610100808354040283529160200191610273565b820191906000526020600020905b81548152906001019060200180831161025657829003601f168201915b50505050509250818054600181600116156101000203166002900480601f01602080910402602001604051908101604052809291908181526020018280546001816001161561010002031660029004801561030f5780601f106102e45761010080835404028352916020019161030f565b820191906000526020600020905b8154815290600101906020018083116102f257829003601f168201915b50505050509150955095509550955095505091939590929450565b600080815480929190600101919050555061034361046d565b60a0604051908101604052806000548152602001428152602001848152602001838152602001600015158152509050806002600080548152602001908152602001600020600082015181600001556020820151816001015560408201518160020190805190602001906103b792919061049f565b5060608201518160030190805190602001906103d492919061049f565b5060808201518160040160006101000a81548160ff021916908315150217905550905050600160005490806001815401808255809150509060018203906000526020600020016000909192909190915055507f0a876ab1b61ac435583eff217004b488a577c3ac97cd908148dfcbb9b454af9b6000544285856000604051610460959493929190610714565b60405180910390a1505050565b60a060405190810160405280600081526020016000815260200160608152602001606081526020016000151581525090565b828054600181600116156101000203166002900490600052602060002090601f016020900481019282601f106104e057805160ff191683800117855561050e565b8280016001018555821561050e579182015b8281111561050d5782518255916020019190600101906104f2565b5b50905061051b919061051f565b5090565b61054191905b8082111561053d576000816000905550600101610525565b5090565b90565b600082601f830112151561055757600080fd5b813561056a610565826107a2565b610775565b9150808252602083016020830185838301111561058657600080fd5b61059183828461081e565b50505092915050565b60006105a68235610814565b905092915050565b600080604083850312156105c157600080fd5b600083013567ffffffffffffffff8111156105db57600080fd5b6105e785828601610544565b925050602083013567ffffffffffffffff81111561060457600080fd5b61061085828601610544565b9150509250929050565b60006020828403121561062c57600080fd5b600061063a8482850161059a565b91505092915050565b600061064e826107db565b808452602084019350610660836107ce565b60005b82811015610692576106768683516106e3565b61067f826107f1565b9150602086019550600181019050610663565b50849250505092915050565b6106a7816107fe565b82525050565b60006106b8826107e6565b8084526106cc81602086016020860161082d565b6106d581610860565b602085010191505092915050565b6106ec8161080a565b82525050565b6000602082019050818103600083015261070c8184610643565b905092915050565b600060a08201905061072960008301886106e3565b61073660208301876106e3565b818103604083015261074881866106ad565b9050818103606083015261075c81856106ad565b905061076b608083018461069e565b9695505050505050565b6000604051905081810181811067ffffffffffffffff8211171561079857600080fd5b8060405250919050565b600067ffffffffffffffff8211156107b957600080fd5b601f19601f8301169050602081019050919050565b6000602082019050919050565b600081519050919050565b600081519050919050565b6000602082019050919050565b60008115159050919050565b6000819050919050565b6000819050919050565b82818337600083830152505050565b60005b8381101561084b578082015181840152602081019050610830565b8381111561085a576000848401525b50505050565b6000601f19601f830116905091905056fea265627a7a723058200b83ff8d1f96fddc1ae94ece60f1a38f4cbf8df3002bf80199aac1e3719bb34a6c6578706572696d656e74616cf50037",
  "source": "pragma solidity 0.5.0;\npragma experimental ABIEncoderV2;\ncontract Todo{\n\nevent TaskEvent(uint  , uint , string, string , bool );\nstruct Task{\n    uint id ;\n    uint date ; \n    string content;\n    string author;\n    bool done;\n}\n    uint lastTaskId ;\n    uint[] taskId;\n    mapping(uint => Task) tasks;\n\n    constructor() public{\n        lastTaskId = 0;\n    }\n\n    modifier taskExist(uint id){\n        if(tasks[id].id == 0){\n            revert();\n        }\n        _;\n    }\n\n    function createTask(string memory _content , string  memory _author) public{\n           lastTaskId++;\n            Task memory task  = Task({\n                id : lastTaskId,\n                date : now,\n                content : _content,\n                author : _author,\n                done : false\n            });\n\n            tasks[lastTaskId] = task ;\n            taskId.push(lastTaskId);\n            emit TaskEvent(lastTaskId, now, _content, _author, false);\n    }\n\n    function getTask(uint id) taskExist(id) public view returns(uint ,uint ,string memory , string memory , bool) {\n        \n        \n        return(id , tasks[id].date , tasks[id].content,tasks[id].author,tasks[id].done);\n    }\n\n    function getTaskId() public view returns(uint[] memory){\n        return taskId;\n    }\n\n}\n  \n",
  "sourcePath": "/Users/rock/Desktop/TodoProject/contracts/ToDo.sol",
  "compiler": {
    "name": "solc",
    "version": "0.5.0+commit.1d4f565a.Emscripten.clang"
  },
  "schemaVersion": "3.3.2",
  "updatedAt": "2020-12-07T14:05:59.230Z",
  "networkType": "ethereum",
  "devdoc": {
    "methods": {}
  },
  "userdoc": {
    "methods": {}
  }
}